:020000040800F2
:1000000000500020BD08000893080008950800086B
:1000100097080008990800089B08000800000000E5
:100020000000000000000000000000009D08000823
:100030009F08000800000000A1080008A3080008AD
:100040000509000805090008050900080509000858
:100050000509000805090008050900080509000848
:100060000509000805090008050900080509000838
:100070000509000805090008050900080509000828
:100080000509000805090008050900080509000818
:10009000AB08000805090008050900080509000863
:1000A00005090008050900080509000805090008F8
:1000B00005090008050900080509000805090008E8
:1000C00005090008050900080509000805090008D8
:1000D00005090008050900080509000805090008C8
:1000E00005090008050900080509000800000000CE
:1000F0000000000000000000000000000000000000
:0C01000000000000000000005FF808F1A3
:10010C0010B5054C237833B9044B13B10448AFF345
:10011C0000800123237010BD80010020000000002E
:10012C002C4B000808B5034B1BB103490348AFF334
:10013C00008008BD00000000840100202C4B00084A
:10014C000068704708B503E000F02AFD0028FBD1D9
:10015C0000F046FD0028F7D103E000F04BFD00282D
:10016C00FBD100F061FD0028F7D140F29C13C2F2E4
:10017C00000303221A7008BD08B54FF400514FF468
:10018C008050C4F2010000F05BFF08214FF4406086
:10019C00C4F2010000F054FF40F2D410C2F200008F
:1001AC0003F029FD4FF48053C4F202039A6922F044
:1001BC0010029A619A6922F020029A619A6922F0DF
:1001CC0008029A619A6922F004029A6101F02AFFEE
:1001DC0000F094FB4FF0E02300221A615A619A61FF
:1001EC0008BD10B50446FFF7C7FF2368626883F3A8
:1001FC000888104710BD00239C46934217D210B5B7
:10020C0007E00CF1010C5FFA8CFC0133DBB293427A
:10021C0007D2C45C11F803E07445F2D04FF0000C27
:10022C00F3E7944501D0002010BD0120FCE7934278
:10023C0001D0002070470120704708B501224FF40F
:10024C0000514FF48050C4F2010000F08BFF4FF4CA
:10025C008054C4F2010400224FF40051204600F0F7
:10026C0081FFC82000F0A8FB01224FF4005120466A
:10027C0000F078FFC82000F09FFB00224FF40051E3
:10028C00204600F06FFFC82000F096FB01224FF4CF
:10029C000051204600F066FFC82000F08DFB0022C4
:1002AC004FF40051204600F05DFFC82000F084FBA5
:1002BC0001224FF40051204600F054FF4FF4FA7025
:1002CC0000F07AFB00224FF40051204600F04AFF68
:1002DC004FF4487000F070FB01224FF4005120469F
:1002EC0000F040FF4FF4FA7000F066FB00224FF470
:1002FC000051204600F036FF4FF4487000F05CFBD4
:10030C0001224FF40051204600F02CFF4FF4FA70FC
:10031C0000F052FB00224FF40051204600F022FF67
:10032C004FF4487000F048FB01224FF40051204676
:10033C0000F018FF4FF4FA7000F03EFB00224FF46F
:10034C000051204600F00EFFC82000F035FB0122C2
:10035C004FF40051204600F005FFC82000F02CFBA4
:10036C0000224FF40051204600F0FCFEC82000F0A3
:10037C0023FB01224FF40051204600F0F3FEC8206D
:10038C0000F01AFB00224FF40051204600F0EAFE68
:10039C00C82000F011FB01224FF40051204600F060
:1003AC00E1FE40F6B83000F007FB50E770B540F2C4
:1003BC00A013C2F2000300221A6040F29C13C2F296
:1003CC0000031A7004214FF44060C4F2010000F0E5
:1003DC00C2FE01283CD10646002417E04FF480559C
:1003EC00C4F2010500224FF40051284600F0BAFE79
:1003FC000A2000F0E1FA01224FF40051284600F0E7
:10040C00B1FE5A2000F0D8FA0134E4B2092CE5D937
:10041C00012208214FF44060C4F2010000F0A2FE5A
:10042C004FF400614FF44060C4F2010000F093FE01
:10043C00C0B940F2A413C2F2000300221A709EBB92
:10044C0040F2A413C2F200031D781DB3344630E011
:10045C00002208214FF44060C4F2010000F082FE3B
:10046C000026DDE740F2A413C2F2000301221A7049
:10047C00E5E70134E4B2092C0ED804F1007000F564
:10048C00A0508000FFF75CFEB0F1FF3FF1D10135C9
:10049C00EDB2EEE72C46EEE70A2D06D04FF4A04065
:1004AC00C0F60000FFF79DFE70BDFFF7C6FE0134DD
:1004BC00E4B2092C0CD804F1007000F5285080002F
:1004CC00FFF73EFEB0F1FF3FF1D10136F6B2EEE799
:1004DC000A2E06D04FF42840C0F60000FFF781FE2C
:1004EC00E2E7FFF7AAFE00B587B003E000F078FB67
:1004FC000028FBD100F054FB0028F7D103E000F0FA
:10050C0093FB0028FBD100F075FB0028F7D10023EA
:10051C00029340F2A413C2F200031B786BB94FF4A0
:10052C00A043C0F6000304931623059301A902A867
:10053C0000F0EFFB8DF8030009E04FF42843C0F600
:10054C0000030493F0E700F02BFB0028FBD100F034
:10055C0047FB0028F7D103E000F04CFB0028FBD14F
:10056C0000F062FB0028F7D19DF8033073B940F21C
:10057C009C13C2F2000301221A7040F2A013C2F2C3
:10058C00000300221A6007B05DF804FBFFF755FE6C
:10059C0000B587B003E000F023FB0028FBD100F08E
:1005AC00FFFA0028F7D103E000F03EFB0028FBD156
:1005BC0000F020FB0028F7D140F29C13C2F200039C
:1005CC001B78012B17D00023029340F2A413C2F224
:1005DC0000031B78C3B94FF4A043C0F60003049387
:1005EC001623059301A902A800F093FB8DF80300D4
:1005FC009DF8033073B940F29C13C2F2000302223F
:10060C001A7007B05DF804FB4FF42843C0F60003E2
:10061C000493E5E7FFF711FE10B504460B2244F6F0
:10062C004431C0F60001FFF7E6FD30B140F29C13F7
:10063C00C2F200031B78022B12D10D2244F660315A
:10064C00C0F600012046FFF7D6FD98B1FFF7A0FFDA
:10065C00112144F67030C0F6000004F014F810BDFF
:10066C00FFF741FF0F2144F65030C0F6000004F0B4
:10067C000AF8F4E70E2244F68431C0F60001204655
:10068C00FFF7B9FD30B140F29C13C2F200031B78A6
:10069C00022B17D00D2244F6A831C0F600012046DB
:1006AC00FFF7A9FD30B140F29C13C2F200031B7896
:1006BC00022B11D02A2144F6CC30C0F6000003F0F6
:1006CC00E2FFCCE7FFF73EFD102144F69430C0F674
:1006DC00000003F0D8FFC2E7FFF734FDFFF703FF7C
:1006EC00102144F6B830C0F6000003F0CCFFB6E79A
:1006FC002DE9F04188B000240494059406940794E5
:10070C004FF48053C4F202039A6942F010029A61CA
:10071C009A6902F010020092009A9A6942F0200243
:10072C009A619A6902F020020192019A9A6942F048
:10073C0008029A619A6902F008020292029A9A6976
:10074C0042F004029A619B6903F004030393039B38
:10075C004FF48056C4F2010601224FF4005130468A
:10076C0000F000FD4FF44065C4F20105224608215B
:10077C00284600F0F7FC4FF4005304934FF00108A7
:10078C00CDF8148006940327079704A9304600F08F
:10079C001FFB40F6040304930594069404A9284611
:1007AC0000F016FB08230493CDF8148006940797E9
:1007BC0004A9284600F00CFB08B0BDE8F08130B568
:1007CC0095B0282200210DEB020004F07DF90024E5
:1007DC000594069407940894099401940294039444
:1007EC00049401220A924FF480330B930E9202254B
:1007FC00119512934FF4E01313930AA801F0A7FC80
:10080C000F230593069507944FF48063089309937F
:10081C00294605A801F056FF10230193049401A862
:10082C0002F032F815B030BD08B500F09FF8FFF7B4
:10083C00C6FFFFF75DFF03F0B3FEFFF7B7FDFEE762
:10084C00704782B04FF48053C4F202039A6942F0AD
:10085C0001029A619A6902F001020092009ADA6927
:10086C0042F08052DA61DB6903F080530193019B03
:10087C000022C4F20102536823F0E06343F00073DA
:10088C00536002B070477047FEE7FEE7FEE7FEE7F5
:10089C0070477047704708B500F07BF808BD08B585
:1008AC0041F28800C2F2000001F060F908BD704707
:1008BC00002103E00B4B5B58435004310A480B4BAF
:1008CC0042189A42F6D30A4A02E0002342F8043B4B
:1008DC00084B9A42F9D3FFF7EAFF04F0FDF8FFF753
:1008EC00A3FF7047604C0008000000207C01002032
:1008FC008001002074130020FEE7704710B54FF400
:10090C008053C4F202034FF0FF32DA6000241C6102
:10091C00DA60DC60FFF7F1FF204610BD10B504462D
:10092C0040F20403C2F200031A784FF47A73B3FB5B
:10093C00F2F340F20002C2F200021068B0FBF3F0D6
:10094C0000F0CBF880B90F2C01D901200DE000226A
:10095C0021464FF0FF3000F09EF840F20803C2F23F
:10096C0000031C60002000E0012010BD08B54FF40E
:10097C000053C4F202031A6842F010021A600320FA
:10098C0000F076F80020FFF7C9FFFFF75AFF0020B0
:10099C0008BD40F2A813C2F20003196840F2040229
:1009AC00C2F2000212780A441A60704740F2A8138F
:1009BC00C2F200031868704738B50446FFF7F6FF1B
:1009CC000546B4F1FF3F05D040F20403C2F2000328
:1009DC001B781C44FFF7EAFF401BA042FAD338BD3A
:1009EC0000280FDB00F01F024009012393404FF455
:1009FC006142CEF20002203042F82030BFF34F8F1C
:100A0C00BFF36F8F7047002808DB0901C9B200F1F2
:100A1C00604000F5614080F80013704700F00F0053
:100A2C000901C9B24EF6FC43CEF200030344197619
:100A3C00704700B500F00700C0F1070CBCF1040FC3
:100A4C0028BF4FF0040C031D062B0FD9C31E4FF00B
:100A5C00FF3E0EFA0CF021EA000199400EFA03FE5B
:100A6C0022EA0E0241EA02005DF804FB0023EEE7E5
:100A7C004FF46D42CEF20002D36823F4E0631B0402
:100A8C001B0C000200F4E060034343F0BF6343F42B
:100A9C000033D360704710B504464FF46D43CEF26B
:100AAC000003D868C0F30220FFF7C3FF01462046BD
:100ABC00FFF7A9FF10BD00280ADB00F01F02400958
:100ACC00012393404FF46142CEF2000242F82030F1
:100ADC00704708B5FFF784FF08BD0138B0F1807F7F
:100AEC000ED24FF0E02358614FF46D42CEF200026B
:100AFC00F02182F823100020986107221A617047B8
:100B0C00012070474FF40053C4F20203DB6813F06A
:100B1C00100308D040F2B013C2F20003DA6942F0BD
:100B2C000202DA6110234FF40052C4F20202D268BE
:100B3C0012F0040F09D040F2B012C2F20002D169D7
:100B4C0041F00101D16143F004034FF40052C4F2AF
:100B5C000202D26912F0010F0FD040F2B012C2F2B1
:100B6C000002D16941F00401D1614FF40052C4F28A
:100B7C000202D16921F00101D16140F201129342CC
:100B8C0005D04FF40052C4F20202D36070474FF408
:100B9C000053C4F20203DA6922F00102DA617047F1
:100BAC004FF40053C4F202031B6913F0800F13D0EF
:100BBC004FF40053C4F2020340F22312C4F2675202
:100BCC005A6048F6AB12CCF6EF525A601B6913F020
:100BDC00800F03D100207047002070470120704720
:100BEC004FF40053C4F202031A6942F080021A61F6
:100BFC00002070474FF40053C4F202031B6913F436
:100C0C00007F0FD14FF40053C4F2020340F22312C1
:100C1C00C4F267529A6048F6AB12CCF6EF529A6067
:100C2C0000207047012070474FF40053C4F20203B8
:100C3C001A6922F400721A610020704738B5044614
:100C4C00FFF7B4FE05464FF40053C4F20203DB6811
:100C5C0013F0010F0AD0B4F1FF3FF4D024B1FFF729
:100C6C00A5FE401BA042EED903202AE04FF400530E
:100C7C00C4F20203DB6813F0200F05D04FF40053CD
:100C8C00C4F202032022DA604FF40053C4F20203D0
:100C9C00DB6813F0100F11D14FF40053C4F20203B0
:100CAC00DB6913F0010F09D14FF40053C4F20203B6
:100CBC00DB6813F0040F01D1002002E0FFF722FFE4
:100CCC00012038BD40F2B013C2F200030022DA61F9
:100CDC004FF40053C4F202031A6942F004021A6181
:100CEC001A6942F040021A61704740F2B013C2F226
:100CFC0000030022DA614FF40053C4F202031A69B4
:100D0C0042F002021A6158611A6942F040021A61FB
:100D1C00704740F2B013C2F200031B7E012B53D07C
:100D2C0070B505460E4640F2B013C2F20003012224
:100D3C001A760368022B24D04CF25030FFF77EFF5A
:100D4C00002838D14FF0FF333360AC680121EA68DA
:100D5C00AB6803EB8223A3422ED92046FFF7C5FFD5
:100D6C004CF25030FFF76AFF4FF40053C4F2020309
:100D7C001A6922F002021A610146D0B904F58064A6
:100D8C00E5E74CF25030FFF759FF08B1012113E0B1
:100D9C000120FFF797FF4CF25030FFF74FFF014651
:100DAC004FF40053C4F202031A6922F004021A61D0
:100DBC0002E0346000E0012140F2B013C2F2000303
:100DCC0000221A76084670BD0221084670470000C2
:100DDC0070B582B00024A446CBE00025C1F22205F8
:100DEC00AB4219D00025C1F22205AB420AD900252D
:100DFC00C1F23105AB420FD00025C1F23205AB4236
:100E0C000AD016E00025C1F21205AB4204D0002531
:100E1C00C1F22105AB4207D18B68002B65D0012BA9
:100E2C005ED04261082404E00025C1F21105AB42FA
:100E3C00F2D0BEF1FF0F5AD806464FEA8C02336847
:100E4C000F25954023EA050304FA02F2134333609D
:100E5C004B6813F0805F00F08A804FF48053C4F22B
:100E6C0002039A6942F001029A619B6903F0010343
:100E7C000193019B4FEA9C020023C4F20103951CD1
:100E8C0053F825600CF00305AD000F23AB4026EAA8
:100E9C0003064FF40063C4F2010398422ED04FF4C2
:100EAC004063C4F20103984200F0A0804FF48053D9
:100EBC00C4F20103984200F09B804FF4A053C4F29B
:100ECC000103984218D0042319E0CC68B1E7CC6830
:100EDC000434AEE7CC680834ABE7CC680C34A8E734
:100EEC0002610824A5E70024A3E70424A1E7061D5A
:100EFC00ACF108029200A2E7032300E00023AB4010
:100F0C0033430025C4F20105023245F822304B6808
:100F1C0013F4803F6ED04FF48063C4F201031A685F
:100F2C0042EA0E021A604B6813F4003F6BD04FF488
:100F3C008063C4F201035A6842EA0E025A604B689D
:100F4C0013F4801F68D04FF48063C4F201039A68D5
:100F5C0042EA0E029A604B6813F4001F65D04FF4FE
:100F6C008063C4F20103DA6842EA0E02DA600CF123
:100F7C00010C0B6833FA0CF260D0012202FA0CF26D
:100F8C0003EA020E32EA0303F1D14B68122B3FF64F
:100F9C0024AF122B3FF64DAF01A555F823F000BF3F
:100FAC00250E0008D70E0008E10E0008F30E00080D
:100FBC003F0E00083F0E00083F0E00083F0E0008D1
:100FCC003F0E00083F0E00083F0E00083F0E0008C1
:100FDC003F0E00083F0E00083F0E00083F0E0008B1
:100FEC003F0E0008DB0E0008E70E0008012386E721
:100FFC00022384E74FF48063C4F201031A6822EAE7
:10100C000E021A608FE74FF48063C4F201035A6832
:10101C0022EA0E025A6092E74FF48063C4F2010395
:10102C009A6822EA0E029A6095E74FF48063C4F244
:10103C000103DA6822EA0E02DA6098E702B070BDAA
:10104C0000227EE0032500E0002505FA04F4644547
:10105C004FD0FF2B6DD886469500DEF800404FF040
:10106C000F0C0CFA05FC24EA0C044FF0040C0CFADF
:10107C0005FC44EA0C04CEF80040C46824EA0303DF
:10108C00C360013231FA02F359D0012393400B4073
:10109C00F7D04FEA920E0025C4F201050EF10204BE
:1010AC0055F8245002F00304A4004FF00F0C0CFA76
:1010BC0004F606EA050C4FF40065C4F20105A842DB
:1010CC00C2D04FF44065C4F20105A8420DD04FF4D4
:1010DC008055C4F20105A84209D04FF4A055C4F2C2
:1010EC000105A842AED00425AFE70125ADE70225E6
:1010FC00ABE70025C4F201050EF1020455F824708B
:10110C0027EA060645F824604FF48064C4F2010413
:10111C00256825EA03052560656825EA03056560F1
:10112C00A56825EA0305A560E56825EA0305E560E1
:10113C008FE700F1040EA2F10805AD008DE7F0BDBC
:10114C00013231FA02F305D0012393400B40F7D062
:10115C00F0B59EE770478368194201D001207047B3
:10116C00002070470AB101617047090401617047A2
:10117C0038B512F4804F44D00468B4F850309BB2A8
:10118C0091F800C003EBCC03023304EB4304B4F836
:10119C000044C4F309048B69A34228D31B1B8B6145
:1011AC008B697BB9056835F82C309BB223F48043EE
:1011BC0023F0700383F4005343F4004343F08003A3
:1011CC0025F82C3012F0400F0ED002680D7832F852
:1011DC0025309BB223F4E04323F0700343F4004327
:1011EC0043F0C00322F8253024B9204638BD002333
:1011FC008B61D5E723460A894969006802F037FB01
:10120C00F3E70468B4F850309BB291F800C003EBDC
:10121C00CC03063304EB4304B4F80044C4F30904D0
:10122C008B69A3422FD31B1B8B618B697BB9056820
:10123C0035F82C309BB223F4804323F0700383F4F5
:10124C00005343F4004343F0800325F82C3012F094
:10125C00400F0FD1026891F800C032F82C309BB2CD
:10126C0023F4E04323F0700343F4004343F0C00342
:10127C0022F82C30002CB8D023464A8949690068E2
:10128C0002F0F5FAB1E700238B61CEE770B586B0BA
:10129C00002800F08580044690F8A932EBB10323B6
:1012AC0084F8A932206801F0ABFB254655F8106B89
:1012BC00EC460FCDACE80F002B68CCF80030231DAA
:1012CC000ECB304601F08CFB054658B1022384F856
:1012DC00A9320125284606B070BD80F8A83203F06B
:1012EC00B3FADCE70021206801F094FB2B461AE0EE
:1012FC005A1C02EB820104EBC1010120487002EB85
:10130C00820104F8313003EB830104EBC101CB867D
:10131C0002EB820C04EBCC0C00208CF803008863ED
:10132C00C8630864D3B261688B42E1D316E005EB65
:10133C00850304EBC303002283F8692183F8685109
:10134C0083F86B21C3F87821C3F87C2105EB850366
:10135C0004EBC303C3F880210135EDB2A942E6D8F2
:10136C00254655F8106BEC460FCDACE80F002B68FA
:10137C00CCF80030231D0ECB304601F04DFB05465A
:10138C0020B1022384F8A9320125A3E7002384F8B5
:10139C002430012384F8A932206801F07EFE99E7FD
:1013AC00012597E738B590B10446032380F8A9329C
:1013BC00006801F05FFE054610B10125284638BDD6
:1013CC00204603F063FA002384F8A932F6E70125DE
:1013DC00F4E738B590F8A832012B11D0044601255A
:1013EC0080F8A852006801F002FB2946204603F061
:1013FC006AFB206801F04FFE002084F8A80238BD7B
:10140C000220FCE790F8A832012B12D010B504464C
:10141C00012380F8A832006801F0F2FA002120467E
:10142C0003F051FB206801F038FE002084F8A8027C
:10143C0010BD0220704770B505460C46164612F0DA
:10144C00400F00F0BA800268B2F850309BB20978B5
:10145C0003EBC103023302EB4302B2F80024C2F3E4
:10146C000902A36993422BD99B1AA361A36953B3B5
:10147C0016F4804F0DD0286830F821309BB223F43D
:10148C00E04323F0700343F4404343F0800320F81F
:10149C00213094F82430012B2BD02A68217832F893
:1014AC0021309BB223F4E04323F0400383F030035C
:1014BC0043F4004343F0800322F82130002070BD38
:1014CC000023A361D2E7284603F009FA16F4804FF3
:1014DC00E3D02A68217832F821309BB223F4E04320
:1014EC0023F0700343F4404343F0800322F821308F
:1014FC00D3E7636913446361E3691344E361216ACD
:10150C00236999421FD3C91A21626278002A3FD1FC
:10151C002A68B2F8501089B20A44217802EB011201
:10152C00EBB9B2F8041489B221F4F84189B2A2F8EB
:10153C000414B2F804146FEA41416FEA514189B2C4
:10154C00A2F8041426E021B9002384F824301346B1
:10155C00DBE7002384F8243023620B46D5E73E2BCF
:10156C0009D8590813F0010F00D00131890289B252
:10157C00A2F804140EE0590913F01F0F00D1013921
:10158C006FEAC1616FEA514189B2A2F8041401E01B
:10159C00012A06D09BB222896169286801F085FD79
:1015AC007BE72A68B2F8501089B20A44217802EB22
:1015BC00011299B2A2F80414ECE70268B2F85030A8
:1015CC009BB2097803EBC103063302EB4302B2F87A
:1015DC000024C2F30902A369934244D39B1AA3616A
:1015EC00A369002B42D016F4804F0DD1286830F837
:1015FC0021309BB223F4E04323F0700343F44043C7
:10160C0043F0800320F8213094F82430012B7FF430
:10161C0044AF636913446361E3691344E361216A72
:10162C002369994239D3C91A21622A686178002941
:10163C0058D1B2F8501089B20A44217802EB011249
:10164C00BBBBB2F80C1489B221F4F84189B2A2F8F0
:10165C000C14B2F80C146FEA41416FEA514189B293
:10166C00A2F80C1440E00023A361B9E7284603F06C
:10167C0036F916F4804F7FF410AF2A68217832F8CF
:10168C0021309BB223F4E04323F0700343F4404336
:10169C0043F0800322F82130FFE621B9002384F8BF
:1016AC0024301346C1E70023236284F824300B4610
:1016BC00BBE73E2B09D8590813F0010F00D00131BC
:1016CC00890289B2A2F80C140EE0590913F01F0F0D
:1016DC0000D101396FEAC1616FEA514189B2A2F8B8
:1016EC000C1401E0012906D09BB26289616928685B
:1016FC0001F0DBFCD1E6B2F8501089B20A44217833
:10170C0002EB011299B2A2F80C14EDE72DE9F041AD
:10171C0005462868B0F8443013F4004F00F00F82EF
:10172C00B0F84440A3B214F00F0440F0D48013F08E
:10173C00100F5DD003889AB213F4006F40F08F80C5
:10174C0012F4004FE5D0038823F070031B051B0D2A
:10175C0043F0800303802868B0F850309BB295F8B2
:10176C00682103EBC203063300EB4303B3F80034E8
:10177C00C3F30903C5F884318BB1D5F87C1171B171
:10178C00B5F86E2102F073F8D5F87C31D5F88421C8
:10179C001344C5F87C310021284603F094F82B68DB
:1017AC00B3F8502092B21344D5F87821002A79D19D
:1017BC00B3F80C2492B222F4F84292B2A3F80C249F
:1017CC00B3F80C246FEA42426FEA524292B2A3F889
:1017DC000C242A6813889BB223F4804323F07003F3
:1017EC0083F4405343F4004343F08003138090E7A9
:1017FC0003889BB223F4E14323F070036FEA434365
:10180C006FEA53439BB203802A68B2F850309BB204
:10181C0095F8281003EBC103023302EB4302B2F834
:10182C000034C3F309036B64EA6B1A44EA630021C6
:10183C00284603F054F895F82430002B3FF469AF98
:10184C002B6C002B7FF465AF95F824302A6843F09D
:10185C008003A2F84C30002385F8243059E7B0F807
:10186C0050309BB295F8682103EBC203063300EBB2
:10187C004303B3F80034C3F30903C5F88431B5F856
:10188C006E2105F52C7101F0F2FF2A68138823F004
:10189C0070031B051B0D43F080031380284603F0D7
:1018AC000AF836E73E2A09D8510812F0010F00D089
:1018BC000131890289B2A3F80C148AE7510912F09C
:1018CC001F0F00D101396FEAC1626FEA524292B226
:1018DC00A3F80C247DE730F824309EB213F4004FAB
:1018EC0048D116F0800F3FF414AF621C02EB82015A
:1018FC0005EBC101286830F824309BB223F4E14396
:10190C0023F070036FEA43436FEA53439BB220F812
:10191C002430CB78022B00F0F1802868B0F85030DE
:10192C009BB2621C02EB820215F8326003EBC60319
:10193C00023300EB4303B3F80034C3F3090304EBA5
:10194C00840205EBC202126C9A4240F2E08004EB76
:10195C00840705EBC707D21A3A6404EB840205EB43
:10196C00C202126C002A40F0D9803146284602F09F
:10197C00B6FFCEE630F8243023F070031B051B0DA8
:10198C0043F0800320F8243004EB8401C90001F5F6
:10199C00B4716F1804EB840305EBC30393F8743133
:1019AC00002B44D12868B0F850309BB204EB840271
:1019BC0005EBC20292F8682103EBC203063300EB7D
:1019CC004303B3F80084C8F30908B8F1000F22D11F
:1019DC0004EB840305EBC303D3F884214244C3F81E
:1019EC008421D3F87C214244C3F87C21D3F8803184
:1019FC003BB104EB840305EBC303D3F87831984572
:101A0C0077D204EB840305EBC30393F868112846E3
:101A1C0002F059FF65E704EB840105EBC101434675
:101A2C00B1F86E21D1F87C1101F021FFD0E704EB65
:101A3C00840305EBC30393F86B31022B36D0296872
:101A4C0004EB840205EBC20292F8680131F82030F5
:101A5C009BB223F4E04323F0700343F4004343F0C0
:101A6C00C00321F82030286892F8682130F8223021
:101A7C0013F4804F21D0B0F850309BB203EBC2036B
:101A8C00023300EB4303B3F80084C8F30908B8F140
:101A9C00000F9DD004EB840105EBC1014346B1F866
:101AAC007021D1F87C1101F0E2FE91E73246394603
:101ABC002846FFF75DFB80468AE7B0F850309BB2B2
:101ACC0003EBC203063300EB4303B3F80084C8F303
:101ADC000908B8F1000F3FF47BAF04EB840105EB70
:101AEC00C1014346B1F87221D1F87C1101F0BFFE5F
:101AFC006EE73946286801F0EBFAF2E616F4807FBF
:101B0C003FF40BAF32462846FFF795FC01E604EB99
:101B1C00840205EBC202002717641EE704EB840263
:101B2C0005EBC202D66B1E44D663526C04EB8404E4
:101B3C0005EBC4041344636401F0CAFAE9E5002020
:101B4C00BDE8F08190F8A832012B0DD010B50446F9
:101B5C00012380F8A83280F82410006801F095FA6F
:101B6C00002084F8A80210BD0220704710B584B084
:101B7C000446006801F093FA10F4004F47D1206836
:101B8C0001F08DFA10F4806F45D1206801F087FACE
:101B9C0010F4804F08D02268B2F844309BB223F482
:101BAC0080439BB2A2F84430206801F078FA10F41C
:101BBC00005F08D02268B2F844309BB223F4005383
:101BCC009BB2A2F84430206801F069FA10F4805FEF
:101BDC0032D1206801F063FA10F4006F78D12068DC
:101BEC0001F05DFA10F4007F40F09D80206801F058
:101BFC0056FA10F4807F08D02268B2F844309BB2B9
:101C0C0023F480739BB2A2F8443004B010BD20467C
:101C1C00FFF77CFDB3E72268B2F844309BB223F4A3
:101C2C0080639BB2A2F84430204602F069FE00218A
:101C3C002046FFF787FFA8E72268B2F840309BB236
:101C4C0023F004039BB2A2F840302268B2F8403073
:101C5C009BB223F008039BB2A2F84030204602F05E
:101C6C0072FE2268B2F844309BB223F480539BB2CC
:101C7C00A2F84430ADE7226832F8231004AA02EB34
:101C8C00430222F8101C0133DBB2072BF3D9226874
:101C9C00B2F840309BB243F00103A2F84030226806
:101CAC00B2F840309BB223F001039BB2A2F8403053
:101CBC002368B3F8442012F4806FF9D0B3F84420B1
:101CCC0092B222F4806292B2A3F8442000230BE07B
:101CDC000023DAE7226804A901EB430131F8101C58
:101CEC0022F823100133DBB2072BF3D92268B2F8A8
:101CFC0040309BB243F00803A2F840302268B2F89F
:101D0C0044309BB223F400639BB2A2F844302268A7
:101D1C00B2F840309BB243F00403A2F840302046A6
:101D2C0002F000FE5BE72268B2F844309BB223F469
:101D3C0000739BB2A2F84430204602F0DBFD55E75D
:101D4C0010B504468C4611F0800F2AD101F0070023
:101D5C0000EB8001C90001F5B47E04EB0E0100EB31
:101D6C00800004EBC0004FF0000E80F869E10CF02D
:101D7C00070C81F800C00A61CB704A780AB1A1F84F
:101D8C000EC0022B19D094F8A832012B18D00123C5
:101D9C0084F8A832206800F050FE002084F8A802D5
:101DAC0010BD01F00700013000EB800104EBC10114
:101DBC004FF0010E81F801E0D9E700230B71E2E747
:101DCC000220EDE710B504460B4611F0800F1FD131
:101DDC0001F0070202EB8201C90001F5B471014464
:101DEC0002EB820200EBC202002082F8690103F0D0
:101DFC0007030B7094F8A832012B13D0012384F83D
:101E0C00A832206800F0D5FF002084F8A80210BD8D
:101E1C0001F00702013202EB820100EBC10101204B
:101E2C004870E4E70220F2E710B501F0070404EB78
:101E3C008401C90001F5B471014404EB840C00EB7E
:101E4C00CC0CCCF87C21CCF880310023CCF884313C
:101E5C008CF869318CF8684124B9006801F038F9C4
:101E6C00002010BD006801F033F9F9E701F007011B
:101E7C0001EB810100EBC100D0F88401704710B573
:101E8C0001F0070404F1010C0CEB8C0100EBC10117
:101E9C0004EB840E00EBCE0ECEF83C20CEF8403096
:101EAC0001228EF84C20CEF848300023CEF8443076
:101EBC004A700CEB8C0C00F83C4024B9006801F023
:101ECC0007F9002010BD006801F002F9F9E738B5F8
:101EDC0001F007054268954231D804460B4611F0D3
:101EEC00800F1ED101EB8101C90001F5B4710144D1
:101EFC0003EB830300EBC303002283F86921012366
:101F0C008B700D7094F8A832012B1AD0012384F831
:101F1C00A832206801F038F85DB1002084F8A802DE
:101F2C0038BD6B1C03EB830100EBC10101224A702D
:101F3C00E5E704F52C71206801F0B5F8EDE7012018
:101F4C00EEE70220ECE70B4601F00F0142689142EC
:101F5C0030D810B5044613F0800F21D103F00702DE
:101F6C0002EB8201C90001F5B471014402EB82025B
:101F7C0000EBC202002082F8690100228A7003F093
:101F8C0007030B7094F8A832012B15D0012384F8A9
:101F9C00A832206801F01DF8002084F8A80210BDBA
:101FAC0003F00702013202EB820100EBC1010120B8
:101FBC004870E2E7012070470220F0E711F0800F33
:101FCC000BD001F00701013101EB810100EBC100E5
:101FDC0052B90273C3800020704701EB8101C90024
:101FEC0001F5B4710844F3E70122027303811B0C61
:101FFC004381F0E782B040F20003C2F200031B6899
:10200C0044F6D352C1F26202A2FB03235B0A00FB2B
:10201C0003F3019300BF019B5A1E0192002BF9D1CF
:10202C0002B0704770B5FEF7C1FC04464FF4805304
:10203C00C4F202031A6842F001021A604FF4805392
:10204C00C4F202031B6813F0020F07D1FEF7AEFCBB
:10205C00001B0228F2D90324204670BD4FF4805592
:10206C00C4F202052B6823F0F80343F080032B60C5
:10207C00FEF79CFC044600236B604FF48053C4F2C3
:10208C0002035B6813F00C0F08D0FEF78FFC001BEB
:10209C0041F288339842F0D90324DDE740F2000383
:1020AC00C2F200034FF49052C0F27A021A6040F26E
:1020BC000803C2F200031868FEF730FC044608B1AE
:1020CC000124C9E7FEF772FC05464FF48053C4F2B5
:1020DC0002031A6822F080721A604FF48053C4F223
:1020EC0002031B6813F0007F06D0FEF75FFC401B59
:1020FC000228F2D90324AFE74FF48056C4F202064B
:10210C0000237360FEF752FC0546336823F410235A
:10211C0033604FF48053C4F202031B6813F4003F86
:10212C0006D0FEF743FC401B6428F2D9032493E746
:10213C004FF48053C4F202031A6822F480221A600E
:10214C005A6A42F080725A6200229A6084E7002830
:10215C0000F0688270B582B00446036813F0010F7A
:10216C0038D04FF48053C4F202035B6803F00C03C5
:10217C00042B23D04FF48053C4F202035B6803F0AA
:10218C000C03082B12D06368B3F5803F54D0002B9E
:10219C006ED14FF48053C4F202031A6822F48032D9
:1021AC001A601A6822F480221A604DE04FF48053B2
:1021BC00C4F202035B6813F4803FE4D04FF4805305
:1021CC00C4F202031B6813F4003F03D06368002BB6
:1021DC0000F02A82236813F0020F00F097804FF46E
:1021EC008053C4F202035B6813F00C0F77D04FF4EA
:1021FC008053C4F202035B6803F00C03082B66D017
:10220C002369002B00F0AD800023C4F2422301228D
:10221C001A60FEF7CBFB05464FF48053C4F2020361
:10222C001B6813F0020F40F09080FEF7BFFB401BC1
:10223C000228F1D90320FCE14FF48053C4F20203CD
:10224C001A6842F480321A60636873B3FEF7AEFB0F
:10225C0005464FF48053C4F202031B6813F4003F8D
:10226C00B8D1FEF7A3FB401B6428F2D90320E0E1B0
:10227C00B3F5A02F0CD04FF48053C4F202031A68AC
:10228C0022F480321A601A6822F480221A60DBE78A
:10229C004FF48053C4F202031A6842F480221A608D
:1022AC001A6842F480321A60CEE7FEF77FFB0546CF
:1022BC004FF48053C4F202031B6813F4003F89D01F
:1022CC00FEF774FB401B6428F2D90320B1E14FF4F4
:1022DC008053C4F202035B6813F4803F90D14FF437
:1022EC008053C4F202031B6813F0020F03D023695E
:1022FC00012B40F09B814FF48052C4F20202136810
:10230C0023F0F803616943EAC1031360236813F0F7
:10231C00080F40D0A369002B72D00023C4F24223D3
:10232C000122C3F88024FEF741FB05464FF480538D
:10233C00C4F202035B6A13F0020F29D1FEF736FBDD
:10234C00401B0228F2D9032073E14FF48052C4F2EF
:10235C000202136823F0F803616943EAC1031360B6
:10236C00D4E70023C4F2422300221A60FEF71EFBBE
:10237C0005464FF48053C4F202031B6813F0020F9E
:10238C00C4D0FEF713FB401B0228F2D9032050E106
:10239C000120FFF72FFE236813F0040F00F0B38029
:1023AC004FF48053C4F20203DB6913F0805F3FD11A
:1023BC004FF48053C4F20203DA6942F08052DA61BE
:1023CC00DB6903F080530193019B01254FF4E0433B
:1023DC00C4F200031B6813F4807F2BD0E368012B3D
:1023EC0042D0002B5ED14FF48053C4F202031A6A20
:1023FC0022F001021A621A6A22F004021A623BE00D
:10240C000023C4F242230022C3F88024FEF7CEFA44
:10241C0005464FF48053C4F202035B6A13F0020FBB
:10242C00B9D0FEF7C3FA401B0228F2D9032000E111
:10243C000025CBE74FF4E043C4F200031A6842F4E2
:10244C0080721A60FEF7B2FA06464FF4E043C4F20B
:10245C0000031B6813F4807FC0D1FEF7A7FA801B22
:10246C006428F2D90320E4E04FF48053C4F2020351
:10247C001A6A42F001021A62E3687BB3FEF796FA1D
:10248C0006464FF48053C4F202031B6A13F0020F8A
:10249C0038D1FEF78BFA801B41F288339842F0D981
:1024AC000320C6E0052B0CD04FF48053C4F202037A
:1024BC001A6A22F001021A621A6A22F004021A62E3
:1024CC00DAE74FF48053C4F202031A6A42F00402B2
:1024DC001A621A6A42F001021A62CDE7FEF766FA36
:1024EC0006464FF48053C4F202031B6A13F0020F2A
:1024FC0008D0FEF75BFA801B41F288339842F0D982
:10250C00032096E02DBBE369002B00F091804FF483
:10251C008052C4F20202526802F00C02082A6ED0F9
:10252C00022B1FD00023C4F2422300221A66FEF7AE
:10253C003DFA04464FF48053C4F202031B6813F0B7
:10254C00007F5AD0FEF732FA001B0228F2D9032082
:10255C006FE04FF48053C4F20203DA6922F0805228
:10256C00DA61D0E70023C4F2422300221A66FEF798
:10257C001DFA05464FF48053C4F202031B6813F096
:10258C00007F06D0FEF712FA401B0228F2D9032076
:10259C004FE0236AB3F5803F22D04FF48052C4F24F
:1025AC000202536823F47413216A606A01430B43DB
:1025BC0053600023C4F2422301221A66FEF7F6F997
:1025CC0004464FF48053C4F202031B6813F0007FDF
:1025DC0011D1FEF7EBF9001B0228F2D9032028E0F9
:1025EC004FF48052C4F20202536823F40033A16802
:1025FC000B435360D1E700201BE0002019E0012BB6
:10260C0019D04FF48053C4F202035B6803F4803199
:10261C00226A914211D103F47013626A93420ED173
:10262C00002006E001207047012002E0012000E0BC
:10263C00002002B070BD0120FBE70120F9E701206A
:10264C00F7E786B044F60843C0F600030FCB0DF154
:10265C00180C0CE90F0040F20123ADF804304FF4D4
:10266C008053C4F202035B6803F00C02082A05D005
:10267C004FF49050C0F27A0006B07047C3F3834217
:10268C0018326A4412F8100C13F4803F13D04FF434
:10269C008053C4F202035B68C3F3404318336B44AA
:1026AC0013F8142C4FF49053C0F27A0303FB00F090
:1026BC00B0FBF2F0E0E74FF41063C0F23D0303FB14
:1026CC0000F0D9E7002800F0D78070B50D4604461D
:1026DC004FF40053C4F202031B6803F007038B4250
:1026EC000ED24FF40052C4F20202136823F0070317
:1026FC000B431360136803F007038B4240F0BE805A
:10270C00236813F0020F20D013F0040F07D04FF4FE
:10271C008053C4F202035A6842F4E0625A602368A0
:10272C0013F0080F07D04FF48053C4F202035A6819
:10273C0042F460525A604FF48052C4F20202536861
:10274C0023F0F003A1680B435360236813F0010FCF
:10275C0041D06368012B2AD0022B32D04FF4805227
:10276C00C4F20202126812F0020F00F089804FF4DA
:10277C008052C4F20202516821F003010B435360F2
:10278C00FEF714F906464FF48053C4F202035B685B
:10279C0003F00C036268B3EB820F1CD0FEF706F952
:1027AC00801B41F288339842EDD9032063E04FF44B
:1027BC008052C4F20202126812F4003FD7D10120F9
:1027CC0059E04FF48052C4F20202126812F0007FFA
:1027DC00CDD101204FE04FF40053C4F202031B682B
:1027EC0003F00703AB420DD94FF40052C4F20202BE
:1027FC00136823F007032B431360136803F00703DC
:10280C00AB423FD1236813F0040F09D04FF4805230
:10281C00C4F20202536823F4E063E1680B43536093
:10282C00236813F0080F0AD04FF48052C4F202024E
:10283C00536823F46053216943EAC1035360FFF7E3
:10284C0000FF4FF48053C4F202035B68C3F303131D
:10285C0044F6F832C0F60002D35CD84040F20003D4
:10286C00C2F20003186040F20803C2F200031868B9
:10287C00FEF754F8002070BD012070470120FAE7E4
:10288C000120F8E70120F6E770B582B00446036832
:10289C0013F0010F4AD04FF48053C4F20203DB69EA
:1028AC0013F0805F60D14FF48053C4F20203DA69F5
:1028BC0042F08052DA61DB6903F080530193019B93
:1028CC0001254FF4E043C4F200031B6813F4807F2E
:1028DC004CD04FF48053C4F202031B6A13F44073C0
:1028EC0018D0626802F440729A4213D04FF48053AD
:1028FC00C4F20203196A21F440700022C4F242228D
:10290C000126C2F840640026C2F84064186211F037
:10291C00010F45D14FF48052C4F20202136A23F422
:10292C00407361680B431362002D4DD1236813F083
:10293C00020F09D04FF48052C4F20202536823F400
:10294C004043A1680B435360236813F0100F44D02D
:10295C004FF48052C4F20202536823F48003E168FE
:10296C000B435360002039E00025AAE74FF4E04305
:10297C00C4F200031A6842F480721A60FEF716F86B
:10298C0006464FF4E043C4F200031B6813F4807F47
:10299C009FD1FEF70BF8801B6428F2D903201DE0B1
:1029AC00FEF704F806464FF48053C4F202031B6A88
:1029BC0013F0020FAED1FDF7F9FF801B41F2883303
:1029CC009842F0D9032009E04FF48053C4F202037B
:1029DC00DA6922F08052DA61A8E7002002B070BDFB
:1029EC0084B001A880E80E00002004B070470346B4
:1029FC000020A3F844004FF43F42A3F84020704756
:102A0C00B0F8403023F47C535B045B0CA0F84030EE
:102A1C00002070470020704784B0844601A880E8ED
:102A2C000E000123ACF840300020ACF84000ACF8AC
:102A3C004400ACF8500004B0704710B5034691F850
:102A4C0000C030F82C2092B222F4EC4222F070023A
:102A5C0092B2C878032861D8DFE800F0555C0258C0
:102A6C00002048F2800E42EA0E0223F82C2091F846
:102A7C0000C033F82C2092B222F4E04222F0700213
:102A8C0042EA0C0242EA0E0223F82C200A7B002AAE
:102A9C0040F0C4804A78002A51D0B3F8502092B24A
:102AAC001A440C7802EB0412B1F806C04FEA5C0C25
:102ABC004FEA4C0CA2F800C40C7833F8242012F026
:102ACC00400F0CD033F8242092B222F4E04222F0D2
:102ADC00700242F4004242F0C00223F82420CA786B
:102AEC00012A1DD0097833F8212092B222F4E04259
:102AFC0022F0400282F0200242F4004242F08002B6
:102B0C0023F821206AE042F40072AAE742F4C06282
:102B1C000020A6E742F480620020A2E70120A0E793
:102B2C00097833F8212092B222F4E04222F04002DC
:102B3C0042F4004242F0800223F821204EE0B3F828
:102B4C00502092B21A440C7802EB0412B1F806C071
:102B5C004FEA5C0C4FEA4C0CA2F808C4B3F85020B6
:102B6C0092B21A440C7802EB04120C69BCBBB2F89A
:102B7C000CC41FFA8CFC2CF4F84C1FFA8CFCA2F839
:102B8C000CC4B2F80CC46FEA4C4C6FEA5C4C1FFAE4
:102B9C008CFCA2F80CC40C7833F8242012F4804F6F
:102BAC000CD033F8242092B222F4E04222F07002CE
:102BBC0042F4404242F0800223F82420097833F892
:102BCC00212092B222F4804222F0700282F4405210
:102BDC0042F4004242F0800223F8212010BD3E2C2A
:102BEC000DD84FEA540C14F0010F01D00CF1010C6C
:102BFC004FEA8C2C1FFA8CFCA2F80CC4CBE74FEAE2
:102C0C00541C14F01F0F01D10CF1FF3C6FEACC6483
:102C1C006FEA5444A4B2A2F80C44BCE791F800C08B
:102C2C0033F82C2092B222F4E04222F0700242F4EB
:102C3C00014242F0800223F82C20B3F8502092B2CB
:102C4C001A4491F800C002EB0C12B1F808C04FEA1C
:102C5C005C0C4FEA4C0CA2F800C4B3F8502092B2B2
:102C6C001A4491F800C002EB0C12B1F80AC04FEAFA
:102C7C005C0C4FEA4C0CA2F808C44A78002A41D1EB
:102C8C000C7833F8242012F4804F0CD033F8242025
:102C9C0092B222F4E04222F0700242F4404242F03E
:102CAC00800223F824200C7833F8242012F0400FF3
:102CBC000CD033F8242092B222F4E04222F07002BD
:102CCC0042F4004242F0C00223F8242091F800C0E4
:102CDC0033F82C2092B222F4804222F0700282F45B
:102CEC00405248F28004224323F82C20097833F810
:102CFC00212092B222F4E04222F04002224323F837
:102D0C0021206BE70C7833F8242012F4804F0CD080
:102D1C0033F8242092B222F4E04222F0700242F402
:102D2C00404242F0800223F824200C7833F824200F
:102D3C0012F0400F0CD033F8242092B222F4E0426F
:102D4C0022F0700242F4004242F0C00223F8242028
:102D5C00CA78012A1ED00C7833F8242092B222F4BF
:102D6C00E04222F0400282F0200242F4004242F0A3
:102D7C00800223F82420097833F8212092B222F41F
:102D8C00804222F0700242F4004242F0800223F8AA
:102D9C00212023E70C7833F8242092B222F4E0426D
:102DAC0022F0400242F4004242F0800223F8242038
:102DBC00E1E70B7B002B46D14B7813B30A7830F844
:102DCC00223013F0400F0CD030F822309BB223F499
:102DDC00E04323F0700343F4004343F0C00320F8B6
:102DEC0022300A7830F822309BB223F4E04323F0EF
:102DFC00400343F4004343F0800320F822300020CA
:102E0C0070470A7830F8223013F4804F0CD030F829
:102E1C0022309BB223F4E04323F0700343F440438D
:102E2C0043F0800320F822300A7830F822309BB22D
:102E3C0023F4804323F0700343F4004343F08003F6
:102E4C0020F82230DBE74B78002B4ED10A7830F893
:102E5C00223013F4804F0CD030F822309BB223F484
:102E6C00E04323F0700343F4404343F0800320F825
:102E7C0022300A7830F8223013F0400F0CD030F8A2
:102E8C0022309BB223F4E04323F0700343F400435D
:102E9C0043F0C00320F822300A7830F822309BB27D
:102EAC0023F4E04323F0700343F4004343F0C003E6
:102EBC0020F822300A7830F822309BB223F4804379
:102ECC0023F0700348F2800C43EA0C0320F8223004
:102EDC000A7830F822309BB223F4E04323F040030D
:102EEC0043EA0C0320F8223089E70A7830F82230C4
:102EFC0013F4804F0CD030F822309BB223F4E04313
:102F0C0023F0700343F4404343F0800320F8223055
:102F1C000A7830F8223013F0400F0CD030F8223001
:102F2C009BB223F4E04323F0700343F4004343F0DB
:102F3C00C00320F822300A7830F822309BB223F4F8
:102F4C00E04323F0700343F4404343F0800320F844
:102F5C0022300A7830F822309BB223F4E04323F07D
:102F6C00400348F2800C43EA0C0320F822300A7824
:102F7C0030F822309BB223F4804323F0700343EAF1
:102F8C000C0320F822303AE74B788BB10A7830F8F2
:102F9C0022309BB223F4E04323F0400383F0100370
:102FAC0043F4004343F0800320F8223000207047A4
:102FBC000A7830F822309BB223F4804323F070035C
:102FCC0083F4805343F4004343F0800320F8223011
:102FDC00ECE70B7B002B4BD14B7833B30A7830F8F2
:102FEC00223013F0400F0CD030F822309BB223F477
:102FFC00E04323F0700343F4004343F0C00320F894
:10300C002230CB78012B33D00A7830F822309BB2A7
:10301C0023F4E04323F0400383F0200343F4004304
:10302C0043F0800320F8223022E00A7830F8223076
:10303C0013F4804F0CD030F822309BB223F4E043D1
:10304C0023F0700343F4404343F0800320F8223014
:10305C000A7830F822309BB223F4804323F07003BB
:10306C0083F4405343F4004343F0800320F82230B0
:10307C000020704703460122A0F840200020A3F84E
:10308C0044000322A3F84020704711B98023A0F814
:10309C004C30002070470020704700207047B0F87B
:1030AC00440080B270470020704701335B0800EB8E
:1030BC00420000F5806008E00A7891F801C042EA0D
:1030CC000C2220F8042B0231013B002BF4D1704769
:1030DC0070B505460C464A78012A37D00B7B002B7D
:1030EC0040F0A0828B690A69934240F27E829B1A5F
:1030FC008B61B5F850309BB22B44217803EB011354
:10310C00002A40F07682B3F80C2492B222F4F842F2
:10311C0092B2A3F80C24B3F80C246FEA42426FEA83
:10312C00524292B2A3F80C24227835F822309BB28A
:10313C0023F4804323F0700383F4405343F400439F
:10314C0043F0800325F82230002070BD8E69096998
:10315C008E4200D90E46237B3BB3E378022B46D03C
:10316C00217835F8213013F0400F00F0EE81002A61
:10317C0040F0CA81B5F850309BB22B4403EB0113DD
:10318C00002E40F0A881B3F80C2492B222F4F8423D
:10319C0092B2A3F80C24B3F80C246FEA42426FEA03
:1031AC00524292B2A3F80C24B7E1B6B23346E2888D
:1031BC0061692846FFF779FFB5F850309BB22B4474
:1031CC00227803EB0213A3F80464227835F822303A
:1031DC009BB223F4E04323F0400383F0300343F429
:1031EC00004343F0800325F822300020ADE7236A2A
:1031FC00994280F05281227835F822309BB223F428
:10320C00E04323F0700343F4014343F0800325F8BB
:10321C002230236A9B1B2362237835F8232012F07B
:10322C00400F00F09D8062788ABBB5F8502092B2B6
:10323C002A4402EB03138EB9B3F80C2492B222F495
:10324C00F84292B2A3F80C24B3F80C246FEA424271
:10325C006FEA524292B2A3F80C241AE03E2E09D81F
:10326C00720816F0010F00D00132920292B2A3F84C
:10327C000C240EE0720916F01F0F00D1013A6FEA10
:10328C00C2626FEA524292B2A3F80C2401E0012A06
:10329C002BD0B3B2628961692846FFF706FF6369D8
:1032AC0033446361236A2269934228D99B1B2362AE
:1032BC006378002B40D1B5F850309BB22B44227868
:1032CC0003EB0213FEB9B3F8042492B222F4F842D1
:1032DC0092B2A3F80424B3F804246FEA42426FEAD2
:1032EC00524292B2A3F8042428E0B5F8502092B2CE
:1032FC002A4402EB0313B2B2A3F80C24C9E7002250
:10330C0022621E46D4E73E2E09D8720816F0010F31
:10331C0000D00132920292B2A3F804240EE072099A
:10332C0016F01F0F00D1013A6FEAC2626FEA5242E7
:10333C0092B2A3F8042401E0012B06D0B3B2228987
:10334C0061692846FFF7B1FE3FE7B5F850309BB2F4
:10335C002B44227803EB0213B2B2A3F80424EDE75A
:10336C0062788ABBB5F8502092B22A4402EB031360
:10337C008EB9B3F8042492B222F4F84292B2A3F8B4
:10338C000424B3F804246FEA42426FEA524292B228
:10339C00A3F804241AE03E2E09D8720816F0010F87
:1033AC0000D00132920292B2A3F804240EE072090A
:1033BC0016F01F0F00D1013A6FEAC2626FEA524257
:1033CC0092B2A3F8042401E0012A2BD0B3B22289D3
:1033DC0061692846FFF769FE636933446361236AB8
:1033EC002269934228D99B1B23626378002B40D11E
:1033FC00B5F850309BB22B44227803EB0213FEB984
:10340C00B3F80C2492B222F4F84292B2A3F80C2432
:10341C00B3F80C246FEA42426FEA524292B2A3F81C
:10342C000C2428E0B5F8502092B22A4402EB031386
:10343C00B2B2A3F80424C9E7002222621E46D4E7E4
:10344C003E2E09D8720816F0010F00D001329202FC
:10345C0092B2A3F80C240EE0720916F01F0F00D1E3
:10346C00013A6FEAC2626FEA524292B2A3F80C249C
:10347C0001E0012B06D0B3B2628961692846FFF7DF
:10348C0014FEA2E6B5F850309BB22B44227803EB25
:10349C000213B2B2A3F80C24EDE7217835F8212001
:1034AC0092B222F4E24222F0700242F4004242F064
:1034BC00800225F82120B5F8502092B22A442178B8
:1034CC0002EB01129BB2A2F80434228961692846EE
:1034DC00FFF7EBFD79E63E2E09D8720816F0010FC6
:1034EC0000D00132920292B2A3F80C2415E07209BA
:1034FC0016F01F0F00D1013A6FEAC2626FEA524216
:10350C0092B2A3F80C2408E0B5F850309BB22B44CF
:10351C0003EB0113B2B2A3F80C246289B3B2616954
:10352C002846FFF7C2FD6378002B4CD1227835F882
:10353C0022309BB223F4E04323F0700343F40043A6
:10354C0043F0C00325F822303FE68ABBB5F8503073
:10355C009BB22B4403EB01138EB9B3F8042492B243
:10356C0022F4F84292B2A3F80424B3F804246FEACC
:10357C0042426FEA524292B2A3F8042421E03E2E5A
:10358C0009D8720816F0010F00D00132920292B2E3
:10359C00A3F8042415E0720916F01F0F00D1013AAC
:1035AC006FEAC2626FEA524292B2A3F8042408E0B6
:1035BC00B5F850309BB22B4403EB0113B2B2A3F815
:1035CC0004242289AAE7012B7FF4FFAD227835F879
:1035DC0022309BB223F4E04323F0700343F44043C6
:1035EC0043F0800325F82230EFE500228A611A4669
:1035FC007FE53E2A09D8510812F0010F00D00131A5
:10360C00890289B2A3F80C148EE5510912F01F0F30
:10361C0000D101396FEAC1616FEA514189B2A3F857
:10362C000C1481E5CB78022B45D0012B40F01D8189
:10363C0089692369994240F2D480C91AA161D2B92F
:10364C00B5F8502092B22A44217802EB0112002BDB
:10365C0040F0CB80B2F8041489B221F4F84189B25D
:10366C00A2F80414B2F804146FEA41416FEA514114
:10367C0089B2A2F804146278002A40F0E880B5F808
:10368C00502092B22A44217802EB0112002B40F018
:10369C00C580B2F80C349BB223F4F8439BB2A2F869
:1036AC000C34B2F80C346FEA43436FEA53439BB2C9
:1036BC00A2F80C3438E5CAB9B0F850309BB20344C8
:1036CC000A7803EB02130A6972BBB3F8042492B2B2
:1036DC0022F4F84292B2A3F80424B3F804246FEA5B
:1036EC0042426FEA524292B2A3F804246378002B50
:1036FC004CD1B5F850309BB22B44227803EB02131B
:10370C00226952BBB3F80C2492B222F4F84292B262
:10371C00A3F80C24B3F80C246FEA42426FEA52422D
:10372C0092B2A3F80C2433E03E2A09D8510812F0C7
:10373C00010F00D001318A0292B2A3F80424D5E71C
:10374C00510912F01F0F00D101396FEAC1626FEA03
:10375C00524292B2A3F80424C8E73E2A09D8510871
:10376C0012F0010F00D001318A0292B2A3F80C249E
:10377C000EE0510912F01F0F00D101396FEAC1623E
:10378C006FEA524292B2A3F80C2401E0012B1DD037
:10379C00E369002B3FF4C8AC227835F8221044F2D0
:1037AC00400303EA01008B4302D000287FF4BCAC39
:1037BC0035F822309BB223F4E04323F0700343F43A
:1037CC00004343F0C00325F82230ADE4B5F8503087
:1037DC009BB22B44227803EB0213228AA3F80C240D
:1037EC00D6E70023A3610B4629E73E2B09D85908DD
:1037FC0013F0010F00D00131890289B2A2F8041430
:10380C0039E7590913F01F0F00D101396FEAC16173
:10381C006FEA514189B2A2F804142CE73E2B09D867
:10382C00590813F0010F00D001318B029BB2A2F8A2
:10383C000C3479E4590913F01F0F00D101396FEAE8
:10384C00C1636FEA53439BB2A2F80C346CE4012AB7
:10385C007FF46AACB5F8502092B22A44217802EB7E
:10386C0001129BB2A2F80C345EE401206DE410B49A
:10387C005C0800EB420000F5806007E030F8042B98
:10388C000A70C2F307224A700231013C002CF5D1B8
:10389C0013F0010F01D003880B7010BC704710B5EA
:1038AC00D0F8B842D0F8BC325BB194F80002FF28D3
:1038BC0007D09B6894F8012221469847FF2384F88F
:1038CC000032002010BD4323038040F25000C2F2AE
:1038DC00000070474323038040F29400C2F20000C2
:1038EC0070474323038040F20C00C2F20000704783
:1038FC000A23038040F21010C2F20000704738B562
:10390C000446D0F8B85201F0D2F8C5F80C02D4F83D
:10391C00B8324BB1D4F8BC32DB6805F50371D5F87D
:10392C0004029847002038BD0220FCE710B5D0F8FF
:10393C00B822D0F8C042F2B101EB810300EB830353
:10394C00DB694BB101EB810C04EBCC04A46BB3FB36
:10395C00F4FC04FB1C3323B10023C2F81432002006
:10396C0010BD01EB810300EB83030022DA611346E7
:10397C0001F08DF8F3E70220F2E7F0B583B00646CC
:10398C000C46D0F8B87200238DF80730ADF804302F
:10399C000B7813F0600527D0202D53D1CA88DAB1EB
:1039AC0013F0800F0CD0D0F8BC329B68394660788D
:1039BC009847E2883946304600F0B0FD002544E0D7
:1039CC004B7887F800328B7987F80132CA883946F0
:1039DC0000F0B9FD002538E0D0F8BC329B6800221D
:1039EC0048789847002530E04F780A2F14D00B2FD9
:1039FC0020D01FB100F080FA022526E090F89C320E
:103A0C00032B03D000F078FA02251EE0022201A954
:103A1C0000F084FD3D4618E090F89C32032B03D057
:103A2C0000F06AFA022510E001220DF1070100F006
:103A3C0075FD0AE090F89C32032B06D000F05CFA7E
:103A4C00022502E000F058FA0225284603B0F0BD2A
:103A5C0038B50446812100F0E3FF0025E562012121
:103A6C00204600F0DDFFC4F86C518221204600F0A6
:103A7C00D7FF2564D4F8B8324BB1D4F8BC325B68AC
:103A8C009847D4F8B80201F01DF8C4F8B8520020D9
:103A9C0038BD70B50446037CABBB4FF400730222F7
:103AAC00812100F0B2FF0125E5624FF40073022280
:103ABC002946204600F0A9FFC4F86C5108230322C4
:103ACC008221204600F0A1FF012323644FF40770EC
:103ADC0000F0F3FF0546C4F8B80268B3D4F8BC3262
:103AEC001B6898470023C5F81432C5F81832267C99
:103AFC00CEB94FF40073D5F804220121204600F012
:103B0C00CEFF304670BD40230222812100F07DFFA4
:103B1C000125E562402302222946204600F075FF6C
:103B2C00C4F86C51CAE74023D5F804220121204681
:103B3C0000F0B5FF0026E4E70126E2E719B1C0F872
:103B4C00BC120020704702207047D0F8B832C3F87E
:103B5C000812C3F8102200207047D0F8B832C3F80E
:103B6C00041200207047D0F8B8229AB108B5D2F8E8
:103B7C0014320BB1012008BD0123C2F81432D2F863
:103B8C00103203639BB2D2F80822812100F07FFF30
:103B9C000020F0E702207047D0F8B82292B108B5A7
:103BAC00037C43B94FF40073D2F80422012100F0D6
:103BBC0076FF002008BD4023D2F80422012100F03A
:103BCC006EFFF6E70220704798B108B50346D0F8AF
:103BDC00B40210B10020C3F8B40209B1C3F8B0129A
:103BEC00012183F89C121A70184600F0B2FE0020D6
:103BFC0008BD0220704710B50446012380F89C32A2
:103C0C00D0F8B4325B6801799847204600F0F5FE95
:103C1C00204600F0E2FE002010BD19B1C0F8B4122D
:103C2C00002070470220704708B500F0DEFE00202F
:103C3C0008BD08B5D0F8B4322BB11B68984700B951
:103C4C0008BD0220FCE70220FAE708B5D0F8B43230
:103C5C005B689847002008BD38B5044600F52A7506
:103C6C00284600F035F90123C4F89432B4F8AE328A
:103C7C00C4F8983294F8A81201F01F03012B0ED04F
:103C8C00022B11D02BB101F08001204600F0D0FEA8
:103C9C0003E02946204600F0CFFA002038BD294623
:103CAC00204600F0FDFAF8E72946204600F028FBF4
:103CBC00F3E738B504460D4691BB1346D0F8942271
:103CCC00032A03D0052A24D0084633E0D0F860112B
:103CDC00D0F8642191420DD9891AC0F860118A423A
:103CEC0006D98AB21946204600F03CFC284621E051
:103CFC0092B2F7E7D0F8B4321B691BB190F89C2252
:103D0C00032A04D0204600F035FC284612E09847E0
:103D1C00F8E70021C0F8941200F08AFE284609E06A
:103D2C00D0F8B4329B6933B190F89C22032A04D1A9
:103D3C009847002038BD0220FCE70220FAE738B58E
:103D4C0004460D46002953D11346D0F89422022A7A
:103D5C000CD0042A00D01AB98021204600F068FE4D
:103D6C0094F8A032012B3ED0284638BD026A416A35
:103D7C008A421BD8C269B2FBF1F301FB13232BB9A6
:103D8C00914203D8D0F898329A421CD3D4F8B4326A
:103D9C00DB681BB194F89C22032A21D08021204699
:103DAC0000F046FE204600F0F0FBD9E7521A026202
:103DBC0092B2194600F0BFFB00231A461946204662
:103DCC0000F06DFECCE70022114600F0B4FB0021A0
:103DDC00C4F898120B460A46204600F060FEBFE776
:103DEC0020469847DAE7002384F8A0322846BCE73F
:103DFC00D0F8B4325B6933B190F89C22032A04D119
:103E0C0098470020B1E70220AFE70220ADE770B57C
:103E1C00044640230022114600F0F7FD0125C4F8AA
:103E2C0058514026C4F86461334600228021204654
:103E3C0000F0EBFDA561666284F89C520023C4F887
:103E4C0094326360C4F8A432D4F8B8322BB1D4F8ED
:103E5C00B4325B68002120469847002070BD017485
:103E6C000020704790F89C3280F89D32042380F833
:103E7C009C320020704790F89C32042B01D000201B
:103E8C00704790F89D3280F89C32F8E708B590F8AE
:103E9C009C32032B01D0002008BDD0F8B432DB6972
:103EAC00002BF8D09847F6E70346002002E00130DB
:103EBC00C0B201331A78002AF9D1704708B54B8883
:103ECC00012B00D008BDC0F8A43200F053FBF9E779
:103EDC000B7803704B7843708B78CA7803EB022312
:103EEC0043800B794A7903EB022383808B79CA795F
:103EFC0003EB0223C380704710B50446802100F009
:103F0C0097FD0021204600F093FD10BD30B583B025
:103F1C0005460C460023ADF806304A88130A013BCF
:103F2C00062B00F2A480DFE803F004182CA2A28672
:103F3C009300D0F8B0321B680DF10601007C984755
:103F4C00BDF806201AB1E388002B40F09480E3887A
:103F5C00002B00F09A8003B030BD037C43B9D0F83D
:103F6C00B4329B6A0DF10600984702234370E7E7D1
:103F7C00D0F8B432DB6A0DF1060098470223437087
:103F8C00DEE7D2B2052A52D8DFE802F003101D2A70
:103F9C003744D0F8B0325B6823B10DF10601007CD8
:103FAC009847CDE72146FFF7A7FFD4E7D0F8B0320A
:103FBC009B6823B10DF10601007C9847C0E72146B0
:103FCC00FFF79AFFC7E7D0F8B032DB6823B10DF1E9
:103FDC000601007C9847B3E72146FFF78DFFBAE74F
:103FEC00D0F8B0321B6923B10DF10601007C984763
:103FFC00A6E72146FFF780FFADE7D0F8B0325B694A
:10400C0023B10DF10601007C984799E72146FFF793
:10401C0073FFA0E7D0F8B0329B6923B10DF1060114
:10402C00007C98478CE72146FFF766FF93E7214613
:10403C00FFF762FF8FE7037C33B9D0F8B4325B6BC8
:10404C000DF1060098477BE72146FFF755FF82E705
:10405C00037C43B9D0F8B4321B6B0DF106009847C2
:10406C00072343706CE72146FFF746FF73E72146B1
:10407C00FFF742FF6FE79A4228BF1A46ADF80620B9
:10408C000146284600F04AFA61E7284600F072FA29
:10409C0061E738B504468B88F3B9CB88E3B94B8814
:1040AC007F2B19D803F07F0590F89C32032B0CD092
:1040BC0080F89E52294600F0E2FC204600F05AFAA5
:1040CC0035B1022384F89C3209E0FFF715FF06E0B6
:1040DC00012384F89C3202E02046FFF70DFF38BD27
:1040EC0038B504460D46897840F2D013C2F200036D
:1040FC001970012911D890F89C32022B11D0032B86
:10410C0024D02946FFF7F8FE40F2D013C2F2000388
:10411C0019782046FFF799FD02E02946FFF7ECFEDF
:10412C0038BD81B14160032380F89C32FFF781FDDB
:10413C00022803D0204600F01DFAF1E7294620465C
:10414C00FFF7DAFEECE700F015FAE9E7A1B14368F6
:10415C00994220D0D9B2FFF778FD40F2D013C2F2C9
:10416C000003197861602046FFF763FD02280DD02B
:10417C00204600F0FFF9D3E7022380F89C3241601F
:10418C00FFF763FD204600F0F5F9C9E72946204604
:10419C00FFF7B2FEC4E700F0EDF9C1E708B5CB8834
:1041AC00012B0AD190F89C32022B09D9032B09D18F
:1041BC000122011D00F0B2F901E0FFF79DFE08BDE0
:1041CC005BB213B9FFF798FEF9E70146002341F8FB
:1041DC00083F012200F0A2F9F1E708B590F89C32F3
:1041EC00013B022B12D8CB88022B0CD10123C360CC
:1041FC00D0F8A4320BB10323C360022200F10C01EE
:10420C0000F08CF908BDFFF777FEFBE7FFF774FEB3
:10421C00F8E708B590F89C32013B022B09D84B8883
:10422C00012B00D008BD0023C0F8A43200F0A2F985
:10423C00F8E7FFF761FEF5E708B50B7803F06003CC
:10424C00202B05D0402B03D043B1FFF755FE03E0E4
:10425C00D0F8B4329B689847002008BD4B78092BE6
:10426C001BD8DFE803F011171A141A08051A0E0BE5
:10427C00FFF74CFEF0E7FFF70CFFEDE7FFF730FF21
:10428C00EAE7FFF78BFFE7E7FFF7A7FFE4E7FFF7A6
:10429C0015FEE1E7FFF7BDFFDEE7FFF72DFEDBE7DD
:1042AC0038B505460C460B7803F06003202B06D07E
:1042BC00402B04D01BB1FFF71FFE002038BD95F832
:1042CC009C32013B022B16D82379012B0ED8D5F842
:1042DC00B4329B68214628469847E388002BECD1E2
:1042EC000028EAD1284600F045F9E6E721462846A1
:1042FC00FFF702FEE1E721462846FFF7FDFDDCE76C
:10430C0070B505468B880C7804F06004202C07D01F
:10431C00DAB2402C04D05CB1FFF7EEFD002405E0CE
:10432C00D5F8B4329B68284698470024204670BDC7
:10433C00202C09D04E78012E33D0032E0AD0002E1B
:10434C0055D0FFF7D9FDF1E7D0F8B4329B68984708
:10435C000446EBE790F89C32022B04D0032B11D0CF
:10436C00FFF7CAFDE2E70AB1802A03D12846FFF71E
:10437C00C3FDDBE7114600F05BFB8021284600F013
:10438C0057FBD3E74B8823B91AB1802A01D0CB88CD
:10439C001BB1284600F0EEF8C8E7114600F048FBC8
:1043AC00F7E790F89C32022B04D0032B11D0FFF7C7
:1043BC00A3FDBBE70AB1802A03D12846FFF79CFD79
:1043CC00B4E7114600F034FB8021284600F030FBA6
:1043DC00ACE74B88002BA9D112F07F0F03D12846F4
:1043EC0000F0C8F8A2E7114600F02AFBF7E790F8B6
:1043FC009C02022806D0032829D02846FFF77CFD12
:10440C00344693E70AB1802A13D113F0800F15D1EB
:10441C0002F07F0202EB8202910001F5A87129449F
:10442C00043100230B600222284600F077F8344652
:10443C007CE72846FFF760FD344677E702F07F0201
:10444C0002EB82029100103129440431E9E75BB29E
:10445C00002B1FDB02F00F0000EB800005EB80004F
:10446C00D0F8580120B3002B27DB02F07F0303EBBD
:10447C0083039C0004F5A8742C4404340AB1802AEC
:10448C0024D10023236002222146284600F046F85E
:10449C0034464BE702F00F0000EB800005EB800088
:1044AC0080690028DFD12846FFF726FD34463DE71A
:1044BC002846FFF721FD344638E702F07F0303EB73
:1044CC0083039C0010342C440434D7E7114628464F
:1044DC0000F0BEFA10B101232360D4E7002323605F
:1044EC00D1E7D0B170B50D4616460446FFF7DCFC9B
:1044FC00431C5B009BB233802B7003236B70022335
:10450C0007E001345A1CD2B2E8540233DBB200216A
:10451C00A95420780028F4D170BD704708B5134613
:10452C000222C0F89422C36103620A46002100F003
:10453C00AEFA002008BD08B513460A46002100F06B
:10454C00A6FA002008BD08B513460322C0F8942231
:10455C00C0F85C31C0F860310A46002100F09FFAC7
:10456C00002008BD08B513460A46002100F097FA52
:10457C00002008BD08B50423C0F8943200231A4665
:10458C00194600F084FA002008BD08B50523C0F8D0
:10459C00943200231A46194600F081FA002008BD17
:1045AC0008B5002240F26011C2F2000140F2D410B2
:1045BC00C2F20000FFF708FBE8B940F2D801C2F2E2
:1045CC00000140F2D410C2F20000FFF726FBA8B99C
:1045DC0040F21C11C2F2000140F2D410C2F20000F1
:1045EC00FFF7ACFA68B940F2D410C2F20000FFF742
:1045FC001BFB48B908BDFCF723F9DEE7FCF720F9F3
:10460C00E6E7FCF71DF9EEE7FCF71AF9F2E70020F4
:10461C0070470020704738B5044640F2D415C2F2FA
:10462C00000501462846FFF798FA2846FFF7B4FA2A
:10463C004FF48055C4F2010500224FF40051284676
:10464C00FCF790FD2046FBF7E7FF01224FF40051E9
:10465C002846FCF787FD002038BD10B540F2D41475
:10466C00C2F20004002240F29841C2F2000120463E
:10467C00FFF76BFA40F68001C2F200012046FFF70B
:10468C006CFA002010BD40F2D413C2F20003D3F830
:10469C00B832D3F814320BB10120704710B540F288
:1046AC00D414C2F200040A4601462046FFF74DFA24
:1046BC002046FFF758FA10BD12230B8040F24C1025
:1046CC00C2F20000704704230B8040F24810C2F283
:1046DC0000007047002393421ED200B510E00CF18D
:1046EC00370C01F813C000014FEA430C0CF1010C1C
:1046FC004FF0000E01F80CE00133DBB2934209D20B
:10470C004FEA107CB0F1204FE9D20CF1300C01F8DB
:10471C0013C0E8E75DF804FB704738B54FF47043FD
:10472C00C1F6FF73D3F8E807D3F8EC47D3F8F037AA
:10473C00C01800D138BD40F22E15C2F20005082277
:10474C002946FFF7C7FF042205F110012046FFF7A9
:10475C00C1FFEFE708B51A230B80FFF7DEFF40F22D
:10476C002C10C2F2000008BD08B50A4670B940F61C
:10477C006841C2F2000144F61C40C0F60000FFF78D
:10478C00B0FE40F66840C2F2000008BD40F6684139
:10479C00C2F2000144F61C40C0F60000FFF7A1FE77
:1047AC00EFE710B50A4640F66844C2F20004214611
:1047BC0044F63040C0F60000FFF793FE204610BDD3
:1047CC0008B50A4670B940F66841C2F2000144F6D9
:1047DC003C40C0F60000FFF784FE40F66840C2F291
:1047EC00000008BD40F66841C2F2000144F63C40AE
:1047FC00C0F60000FFF775FEEFE708B50A4670B982
:10480C0040F66841C2F2000144F64840C0F6000090
:10481C00FFF767FE40F66840C2F2000008BD40F6A4
:10482C006841C2F2000144F64840C0F60000FFF7B0
:10483C0058FEEFE7022805D8DFE800F00504020077
:10484C00012070470220704702684FF4B843C4F24D
:10485C0000039A4200D0704700B583B04FF48053E8
:10486C00C4F20203DA6942F40002DA61DB6903F490
:10487C0000030193019B002211461420FCF70BF955
:10488C001420FCF718F903B05DF804FB08B50268B6
:10489C004FF4B843C4F200039A4200D008BD4FF461
:1048AC008053C4F20203DA6922F40002DA611420A4
:1048BC00FCF70FF9F2E708B500F52C71D0F8E80217
:1048CC00FFF7CAF908BD08B501EB810300EBC30380
:1048DC00D3F87C21D0F8E802FFF7EBF908BD08B556
:1048EC0001EB810300EBC303DA6BD0F8E802FFF7AE
:1048FC0026FA08BD08B5D0F8E802FFF7C7FA08BDDC
:10490C0010B504468368022B09D10121D4F8E802C2
:10491C00FFF7A5FAD4F8E802FFF779FA10BDFBF718
:10492C008FFFF2E710B50446D0F8E802FFF79AFAC9
:10493C00A3693BB14FF46D43CEF200031A6942F008
:10494C0006021A6110BD08B5D0F8E802FFF793FA19
:10495C0008BD10B5044641F28800C2F20000C0F850
:10496C00E842C4F8C0024FF4B843C4F20003036039
:10497C00082343600223836000238361C3610362C5
:10498C00FCF784FC30BB182300221146D4F8C0027B
:10499C00FDF714FB582300228021D4F8C002FDF748
:1049AC000DFBC02300228121D4F8C002FDF706FBC9
:1049BC004FF4887300220121D4F8C002FDF7FEFAEF
:1049CC004FF4807300228221D4F8C002FDF7F6FA6E
:1049DC00002010BDFBF734FFD5E708B5D0F8C002B6
:1049EC00FCF7E0FCFFF726FF08BD08B5D0F8C002C5
:1049FC00FCF7EFFCFFF71EFF08BD08B5D0F8C002AE
:104A0C00FCF700FDFFF716FF08BD08B594461A46E3
:104A1C006346D0F8C002FDF793F9FFF70BFF08BD12
:104A2C0008B5D0F8C002FDF7CDF9FFF703FF08BDBC
:104A3C0008B5D0F8C002FDF74AFAFFF7FBFE08BD37
:104A4C0008B5D0F8C002FDF77EFAFFF7F3FE08BDFB
:104A5C00D0F8C03211F0800F08D101F07F0101EBCA
:104A6C00810103EBC10393F86A01704701F07F01E8
:104A7C00013101EB810103EBC1039878704708B554
:104A8C00D0F8C002FDF75EF8FFF7D4FE08BD08B5FC
:104A9C00D0F8C002FDF7F3F9FFF7CCFE08BD08B55E
:104AAC00D0F8C002FDF7C0F9FFF7C4FE08BD08B589
:104ABC00D0F8C002FDF7DAF908BD40F66860C2F222
:104ACC00000070477047704703460244934200D180
:104ADC00704703F8011BF9E770B500260C4D0D4C1F
:104AEC00641BA410A64209D100F01AF800260A4D46
:104AFC000A4C641BA410A64205D170BD55F8043BAA
:104B0C0098470136EEE755F8043B98470136F2E733
:104B1C00584C0008584C0008584C00085C4C0008D5
:104B2C00F8B500BFF8BC08BC9E467047F8B500BF8E
:084B3C00F8BC08BC9E4670475E
:104B4400232445524153455F4D454D00466C6173E6
:104B5400683A20457261736564210A002324464C37
:104B64004153485F5354415254000000466C6173F2
:104B7400683A20556E6C6F636B6564210A0000000F
:104B84002324464C4153485F46494E49534800004C
:104B9400466C6173683A2053756363657373210AC5
:104BA400000000002324464C4153485F41424F52C9
:104BB40054000000466C6173683A2041626F72745D
:104BC4006564210A000000004572726F723A204940
:104BD4006E636F72726563742073746570206F7294
:104BE40020756E6B6E6F776E20636F6D6D616E6492
:104BF400210A00000000000000000000010203047C
:104C04000607080902030405060708090A0B0C0D28
:104C14000E0F101000000000426F6F746C6F61641F
:104C2400657220436F6D506F7274000056696B7427
:104C34006F722056616E6F0043444320436F6E666B
:104C44006967000043444320496E7465726661637A
:044C540065000000F7
:044C5800310100081E
:044C5C000D0100083E
:104C60000024F400010000001000000009074300C8
:104C7000020104C0320904000001020201000524FF
:104C8000001001052401000104240202052406008D
:104C9000010705820308001009040100020A000050
:104CA00000070501024000000705810240000000E6
:104CB00009024300020100C032090400000102029F
:104CC0000100052400100105240100010424020252
:104CD00005240600010705820308001009040100ED
:104CE000020A0000000705010240000007058102DA
:104CF0004000000009024300020100C03209040024
:104D00000001020201000524001001052401000138
:104D1000042402020524060001070582030800108E
:104D200009040100020A0000000705010200020058
:104D300007058102000200009F3A00085D3A000862
:104D40008739000800000000AB3800083939000836
:104D50000B39000800000000000000000000000007
:104D6000E1380008D3380008EF380008FD380008A3
:104D70000A0600020000004001000000674600082B
:104D80001B4600081F460008234600081A030000BF
:104D90000000000000000000000000000000000013
:104DA00000000000000000000403090412010002DA
:104DB0000202004083044057000201020301000088
:104DC000C5460008D3460008AF47000875470008ED
:0C4DD00061470008CD47000807480008B4
:04000005080008BD2A
:00000001FF
