:020000040800F2
:1050000000500020D5520008A7520008A9520008FD
:10501000AB520008AD520008AF520008000000007B
:10502000000000000000000000000000B152000875
:10503000B352000800000000B5520008B752000843
:105040001D5300081D5300081D5300081D53000880
:105050001D5300081D5300081D5300081D53000870
:105060001D5300081D5300081D5300081D53000860
:105070001D5300081D5300081D5300081D53000850
:105080001D5300081D5300081D5300081D53000840
:105090001D5300081D5300081D5300081D53000830
:1050A0001D5300081D5300081D5300081D53000820
:1050B0001D5300081D5300081D5300081D53000810
:1050C0001D5300081D5300081D5300081D53000800
:1050D0001D5300081D5300081D5300081D530008F0
:1050E0001D5300081D5300081D5300080000000058
:1050F00000000000000000000000000000000000B0
:0C51000000000000000000005FF808F153
:10510C0010B5054C237833B9044B13B10448AFF3F5
:10511C0000800123237010BD0C0000200000000053
:10512C000C5F000808B5034B1BB103490348AFF3F0
:10513C00008008BD00000000100000200C5F00087B
:10514C0030B589B0002404940594069407944FF468
:10515C008053C4F202039A6942F010029A619A6970
:10516C0002F010020092009A9A6942F020029A61B1
:10517C009A6902F020020192019A9A6942F008029F
:10518C009A619A6902F008020292029A9A6942F0B4
:10519C0004029A619B6903F004030393039B4FF48D
:1051AC008055C4F2010501224FF40051284600F04D
:1051BC00B7FA4FF400530493012305930694032389
:1051CC00079304A9284600F073F94FF40063049385
:1051DC000594069404A94FF44060C4F2010000F059
:1051EC0067F909B030BD30B591B02822002106A86E
:1051FC0000F05AFE00240194029403940494059444
:10520C00012206924FF4803307930A9202250D95E2
:10521C000E9306A800F0ABFA0F23019302950394AA
:10522C0004940594214601A800F05CFD11B030BD3A
:10523C0008B500F096F8FFF7D6FFFFF781FF4FF4A3
:10524C0000514FF48050C4F2010000F06FFA64205A
:10525C0000F0ADF8F3E782B04FF48053C4F20203D0
:10526C009A6942F001029A619A6902F00102009275
:10527C00009ADA6942F08052DA61DB6903F08053FC
:10528C000193019B0022C4F20102536823F0E063F6
:10529C0043F00073536002B070477047FEE7FEE7BF
:1052AC00FEE7FEE770477047704708B500F06CF8F2
:1052BC0008BD4FF46D43CEF200034FF4A042C0F68C
:1052CC0000029A6070470000002103E00B4B5B5812
:1052DC00435004310A480B4B42189A42F6D30A4AFF
:1052EC0002E0002342F8043B084B9A42F9D3FFF743
:1052FC00E0FF00F0E1FDFFF79BFF7047505F0008F7
:10530C00000000200C0000200C0000202C000020CD
:10531C00FEE710B5044640F20403C2F200031A780B
:10532C004FF47A73B3FBF2F340F20002C2F20002C4
:10533C001068B0FBF3F000F0A6F880B90F2C01D97F
:10534C0001200DE0002221464FF0FF3000F08BF8D9
:10535C0040F20803C2F200031C60002000E00120B0
:10536C0010BD08B54FF40053C4F202031A6842F0A2
:10537C0010021A60032000F063F80020FFF7C9FF49
:10538C00FFF769FF002008BD40F22803C2F20003BA
:10539C00196840F20402C2F2000212780A441A6040
:1053AC00704740F22803C2F200031868704738B502
:1053BC000446FFF7F6FF0546B4F1FF3F05D040F277
:1053CC000403C2F200031B781C44FFF7EAFF401BE6
:1053DC00A042FAD338BD002808DB0901C9B200F19C
:1053EC00604000F5614080F80013704700F00F003A
:1053FC000901C9B24EF6FC43CEF200030344197600
:10540C00704700B500F00700C0F1070CBCF1040FA9
:10541C0028BF4FF0040C031D062B0FD9C31E4FF0F1
:10542C00FF3E0EFA0CF021EA000199400EFA03FE41
:10543C0022EA0E0241EA02005DF804FB0023EEE7CB
:10544C004FF46D42CEF20002D36823F4E0631B04E8
:10545C001B0C000200F4E060034343F0BF6343F411
:10546C000033D360704710B504464FF46D43CEF251
:10547C000003D868C0F30220FFF7C3FF01462046A3
:10548C00FFF7A9FF10BD0138B0F1807F0ED24FF0AD
:10549C00E02358614FF46D42CEF20002F02182F805
:1054AC0023100020986107221A6170470120704771
:1054BC0070B582B00024A446CBE00025C1F22205D1
:1054CC00AB4219D00025C1F22205AB420AD9002506
:1054DC00C1F23105AB420FD00025C1F23205AB420F
:1054EC000AD016E00025C1F21205AB4204D000250B
:1054FC00C1F22105AB4207D18B68002B65D0012B83
:10550C005ED04261082404E00025C1F21105AB42D3
:10551C00F2D0BEF1FF0F5AD806464FEA8C02336820
:10552C000F25954023EA050304FA02F21343336076
:10553C004B6813F0805F00F08A804FF48053C4F204
:10554C0002039A6942F001029A619B6903F001031C
:10555C000193019B4FEA9C020023C4F20103951CAA
:10556C0053F825600CF00305AD000F23AB4026EA81
:10557C0003064FF40063C4F2010398422ED04FF49B
:10558C004063C4F20103984200F0A0804FF48053B2
:10559C00C4F20103984200F09B804FF4A053C4F274
:1055AC000103984218D0042319E0CC68B1E7CC6809
:1055BC000434AEE7CC680834ABE7CC680C34A8E70D
:1055CC0002610824A5E70024A3E70424A1E7061D33
:1055DC00ACF108029200A2E7032300E00023AB40E9
:1055EC0033430025C4F20105023245F822304B68E2
:1055FC0013F4803F6ED04FF48063C4F201031A6839
:10560C0042EA0E021A604B6813F4003F6BD04FF461
:10561C008063C4F201035A6842EA0E025A604B6876
:10562C0013F4801F68D04FF48063C4F201039A68AE
:10563C0042EA0E029A604B6813F4001F65D04FF4D7
:10564C008063C4F20103DA6842EA0E02DA600CF1FC
:10565C00010C0B6833FA0CF260D0012202FA0CF246
:10566C0003EA020E32EA0303F1D14B68122B3FF628
:10567C0024AF122B3FF64DAF01A555F823F000BF18
:10568C0005550008B7550008C1550008D35500084A
:10569C001F5500081F5500081F5500081F5500080E
:1056AC001F5500081F5500081F5500081F550008FE
:1056BC001F5500081F5500081F5500081F550008EE
:1056CC001F550008BB550008C7550008012386E785
:1056DC00022384E74FF48063C4F201031A6822EAC0
:1056EC000E021A608FE74FF48063C4F201035A680C
:1056FC0022EA0E025A6092E74FF48063C4F201036F
:10570C009A6822EA0E029A6095E74FF48063C4F21D
:10571C000103DA6822EA0E02DA6098E702B070BD83
:10572C000AB101617047090401617047C36801EA5D
:10573C00030221EA030141EA02410161704782B090
:10574C0040F20003C2F200031B6844F6D352C1F2CC
:10575C006202A2FB03235B0A00FB03F3019300BF6D
:10576C00019B5A1E0192002BF9D102B07047002800
:10577C0000F0688270B582B00446036813F0010F24
:10578C0038D04FF48053C4F202035B6803F00C036F
:10579C00042B23D04FF48053C4F202035B6803F054
:1057AC000C03082B12D06368B3F5803F54D0002B48
:1057BC006ED14FF48053C4F202031A6822F4803283
:1057CC001A601A6822F480221A604DE04FF480535C
:1057DC00C4F202035B6813F4803FE4D04FF48053AF
:1057EC00C4F202031B6813F4003F03D06368002B60
:1057FC0000F02A82236813F0020F00F097804FF418
:10580C008053C4F202035B6813F00C0F77D04FF493
:10581C008053C4F202035B6803F00C03082B66D0C0
:10582C002369002B00F0AD800023C4F24223012237
:10583C001A60FFF7B6FD05464FF48053C4F202031D
:10584C001B6813F0020F40F09080FFF7AAFD401B7D
:10585C000228F1D90320FCE14FF48053C4F2020377
:10586C001A6842F480321A60636873B3FFF799FDCB
:10587C0005464FF48053C4F202031B6813F4003F37
:10588C00B8D1FFF78EFD401B6428F2D90320E0E16C
:10589C00B3F5A02F0CD04FF48053C4F202031A6856
:1058AC0022F480321A601A6822F480221A60DBE734
:1058BC004FF48053C4F202031A6842F480221A6037
:1058CC001A6842F480321A60CEE7FFF76AFD05468B
:1058DC004FF48053C4F202031B6813F4003F89D0C9
:1058EC00FFF75FFD401B6428F2D90320B1E14FF4B0
:1058FC008053C4F202035B6813F4803F90D14FF4E1
:10590C008053C4F202031B6813F0020F03D0236907
:10591C00012B40F09B814FF48052C4F202021368B9
:10592C0023F0F803616943EAC1031360236813F0A1
:10593C00080F40D0A369002B72D00023C4F242237D
:10594C000122C3F88024FFF72CFD05464FF4805349
:10595C00C4F202035B6A13F0020F29D1FFF721FD99
:10596C00401B0228F2D9032073E14FF48052C4F299
:10597C000202136823F0F803616943EAC103136060
:10598C00D4E70023C4F2422300221A60FFF709FD7A
:10599C0005464FF48053C4F202031B6813F0020F48
:1059AC00C4D0FFF7FEFC401B0228F2D9032050E1C3
:1059BC000120FFF7C4FE236813F0040F00F0B3803E
:1059CC004FF48053C4F20203DB6913F0805F3FD1C4
:1059DC004FF48053C4F20203DA6942F08052DA6168
:1059EC00DB6903F080530193019B01254FF4E043E5
:1059FC00C4F200031B6813F4807F2BD0E368012BE7
:105A0C0042D0002B5ED14FF48053C4F202031A6AC9
:105A1C0022F001021A621A6A22F004021A623BE0B6
:105A2C000023C4F242230022C3F88024FFF7B9FC00
:105A3C0005464FF48053C4F202035B6A13F0020F65
:105A4C00B9D0FFF7AEFC401B0228F2D9032000E1CD
:105A5C000025CBE74FF4E043C4F200031A6842F48C
:105A6C0080721A60FFF79DFC06464FF4E043C4F2C7
:105A7C0000031B6813F4807FC0D1FFF792FC801BDE
:105A8C006428F2D90320E4E04FF48053C4F20203FB
:105A9C001A6A42F001021A62E3687BB3FFF781FCD9
:105AAC0006464FF48053C4F202031B6A13F0020F34
:105ABC0038D1FFF776FC801B41F288339842F0D93D
:105ACC000320C6E0052B0CD04FF48053C4F2020324
:105ADC001A6A22F001021A621A6A22F004021A628D
:105AEC00DAE74FF48053C4F202031A6A42F004025C
:105AFC001A621A6A42F001021A62CDE7FFF751FCF2
:105B0C0006464FF48053C4F202031B6A13F0020FD3
:105B1C0008D0FFF746FC801B41F288339842F0D93D
:105B2C00032096E02DBBE369002B00F091804FF42D
:105B3C008052C4F20202526802F00C02082A6ED0A3
:105B4C00022B1FD00023C4F2422300221A66FFF757
:105B5C0028FC04464FF48053C4F202031B6813F074
:105B6C00007F5AD0FFF71DFC001B0228F2D903203E
:105B7C006FE04FF48053C4F20203DA6922F08052D2
:105B8C00DA61D0E70023C4F2422300221A66FFF741
:105B9C0008FC05464FF48053C4F202031B6813F053
:105BAC00007F06D0FFF7FDFB401B0228F2D9032033
:105BBC004FE0236AB3F5803F22D04FF48052C4F2F9
:105BCC000202536823F47413216A606A01430B4385
:105BDC0053600023C4F2422301221A66FFF7E1FB53
:105BEC0004464FF48053C4F202031B6813F0007F89
:105BFC0011D1FFF7D6FB001B0228F2D9032028E0B5
:105C0C004FF48052C4F20202536823F40033A168AB
:105C1C000B435360D1E700201BE0002019E0012B5F
:105C2C0019D04FF48053C4F202035B6803F4803143
:105C3C00226A914211D103F47013626A93420ED11D
:105C4C00002006E001207047012002E0012000E066
:105C5C00002002B070BD0120FBE70120F9E7012014
:105C6C00F7E786B045F63473C0F600030FCB0DF1A1
:105C7C00180C0CE90F0040F20123ADF804304FF47E
:105C8C008053C4F202035B6803F00C02082A05D0AF
:105C9C004FF49050C0F27A0006B07047C3F38342C1
:105CAC0018326A4412F8100C13F4803F13D04FF4DE
:105CBC008053C4F202035B68C3F3404318336B4454
:105CCC0013F8142C4FF49053C0F27A0303FB00F03A
:105CDC00B0FBF2F0E0E74FF41063C0F23D0303FBBE
:105CEC0000F0D9E7002800F0D78070B50D460446C7
:105CFC004FF40053C4F202031B6803F007038B42FA
:105D0C000ED24FF40052C4F20202136823F00703C0
:105D1C000B431360136803F007038B4240F0BE8003
:105D2C00236813F0020F20D013F0040F07D04FF4A8
:105D3C008053C4F202035A6842F4E0625A6023684A
:105D4C0013F0080F07D04FF48053C4F202035A68C3
:105D5C0042F460525A604FF48052C4F2020253680B
:105D6C0023F0F003A1680B435360236813F0010F79
:105D7C0041D06368012B2AD0022B32D04FF48052D1
:105D8C00C4F20202126812F0020F00F089804FF484
:105D9C008052C4F20202516821F003010B4353609C
:105DAC00FFF7FFFA06464FF48053C4F202035B6818
:105DBC0003F00C036268B3EB820F1CD0FFF7F1FA0F
:105DCC00801B41F288339842EDD9032063E04FF4F5
:105DDC008052C4F20202126812F4003FD7D10120A3
:105DEC0059E04FF48052C4F20202126812F0007FA4
:105DFC00CDD101204FE04FF40053C4F202031B68D5
:105E0C0003F00703AB420DD94FF40052C4F2020267
:105E1C00136823F007032B431360136803F0070385
:105E2C00AB423FD1236813F0040F09D04FF48052DA
:105E3C00C4F20202536823F4E063E1680B4353603D
:105E4C00236813F0080F0AD04FF48052C4F20202F8
:105E5C00536823F46053216943EAC1035360FFF78D
:105E6C0000FF4FF48053C4F202035B68C3F30313C7
:105E7C0045F62472C0F60002D35CD84040F2000311
:105E8C00C2F20003186040F20803C2F20003186863
:105E9C00FFF73FFA002070BD012070470120FAE7A0
:105EAC000120F8E70120F6E703460244934200D1B3
:105EBC00704703F8011BF9E770B500260C4D0D4C2B
:105ECC00641BA410A64209D100F01AF800260A4D52
:105EDC000A4C641BA410A64205D170BD55F8043BB6
:105EEC0098470136EEE755F8043B98470136F2E740
:105EFC00485F0008485F0008485F00084C5F0008D6
:105F0C00F8B500BFF8BC08BC9E467047F8B500BF9A
:085F1C00F8BC08BC9E4670476A
:105F24000000000000000000010203040607080945
:105F340002030405060708090A0B0C0D0E0F1010C6
:045F44000000000059
:045F480031510008CB
:045F4C000D510008EB
:0C5F50000024F40001000000100000001C
:04000005080052D5C8
:00000001FF
